{
  "_format": "hh-sol-artifact-1",
  "contractName": "FDSStablecoin",
  "sourceName": "contracts/FDSStablecoin.sol",
  "abi": [
    {
      "inputs": [],
      "stateMutability": "nonpayable",
      "type": "constructor"
    },
    {
      "inputs": [],
      "name": "ECDSAInvalidSignature",
      "type": "error"
    },
    {
      "inputs": [
        {
          "internalType": "uint256",
          "name": "length",
          "type": "uint256"
        }
      ],
      "name": "ECDSAInvalidSignatureLength",
      "type": "error"
    },
    {
      "inputs": [
        {
          "internalType": "bytes32",
          "name": "s",
          "type": "bytes32"
        }
      ],
      "name": "ECDSAInvalidSignatureS",
      "type": "error"
    },
    {
      "inputs": [
        {
          "internalType": "address",
          "name": "spender",
          "type": "address"
        },
        {
          "internalType": "uint256",
          "name": "allowance",
          "type": "uint256"
        },
        {
          "internalType": "uint256",
          "name": "needed",
          "type": "uint256"
        }
      ],
      "name": "ERC20InsufficientAllowance",
      "type": "error"
    },
    {
      "inputs": [
        {
          "internalType": "address",
          "name": "sender",
          "type": "address"
        },
        {
          "internalType": "uint256",
          "name": "balance",
          "type": "uint256"
        },
        {
          "internalType": "uint256",
          "name": "needed",
          "type": "uint256"
        }
      ],
      "name": "ERC20InsufficientBalance",
      "type": "error"
    },
    {
      "inputs": [
        {
          "internalType": "address",
          "name": "approver",
          "type": "address"
        }
      ],
      "name": "ERC20InvalidApprover",
      "type": "error"
    },
    {
      "inputs": [
        {
          "internalType": "address",
          "name": "receiver",
          "type": "address"
        }
      ],
      "name": "ERC20InvalidReceiver",
      "type": "error"
    },
    {
      "inputs": [
        {
          "internalType": "address",
          "name": "sender",
          "type": "address"
        }
      ],
      "name": "ERC20InvalidSender",
      "type": "error"
    },
    {
      "inputs": [
        {
          "internalType": "address",
          "name": "spender",
          "type": "address"
        }
      ],
      "name": "ERC20InvalidSpender",
      "type": "error"
    },
    {
      "inputs": [],
      "name": "EnforcedPause",
      "type": "error"
    },
    {
      "inputs": [],
      "name": "ExpectedPause",
      "type": "error"
    },
    {
      "inputs": [
        {
          "internalType": "address",
          "name": "owner",
          "type": "address"
        }
      ],
      "name": "OwnableInvalidOwner",
      "type": "error"
    },
    {
      "inputs": [
        {
          "internalType": "address",
          "name": "account",
          "type": "address"
        }
      ],
      "name": "OwnableUnauthorizedAccount",
      "type": "error"
    },
    {
      "anonymous": false,
      "inputs": [
        {
          "indexed": true,
          "internalType": "address",
          "name": "owner",
          "type": "address"
        },
        {
          "indexed": true,
          "internalType": "address",
          "name": "spender",
          "type": "address"
        },
        {
          "indexed": false,
          "internalType": "uint256",
          "name": "value",
          "type": "uint256"
        }
      ],
      "name": "Approval",
      "type": "event"
    },
    {
      "anonymous": false,
      "inputs": [
        {
          "indexed": true,
          "internalType": "address",
          "name": "triggerer",
          "type": "address"
        },
        {
          "indexed": false,
          "internalType": "uint256",
          "name": "timestamp",
          "type": "uint256"
        }
      ],
      "name": "EmergencyPausedByWatchtower",
      "type": "event"
    },
    {
      "anonymous": false,
      "inputs": [
        {
          "indexed": true,
          "internalType": "address",
          "name": "previousOwner",
          "type": "address"
        },
        {
          "indexed": true,
          "internalType": "address",
          "name": "newOwner",
          "type": "address"
        }
      ],
      "name": "OwnershipTransferred",
      "type": "event"
    },
    {
      "anonymous": false,
      "inputs": [
        {
          "indexed": false,
          "internalType": "address",
          "name": "account",
          "type": "address"
        }
      ],
      "name": "Paused",
      "type": "event"
    },
    {
      "anonymous": false,
      "inputs": [
        {
          "indexed": true,
          "internalType": "address",
          "name": "from",
          "type": "address"
        },
        {
          "indexed": true,
          "internalType": "address",
          "name": "to",
          "type": "address"
        },
        {
          "indexed": false,
          "internalType": "uint256",
          "name": "value",
          "type": "uint256"
        }
      ],
      "name": "Transfer",
      "type": "event"
    },
    {
      "anonymous": false,
      "inputs": [
        {
          "indexed": false,
          "internalType": "address",
          "name": "account",
          "type": "address"
        }
      ],
      "name": "Unpaused",
      "type": "event"
    },
    {
      "anonymous": false,
      "inputs": [
        {
          "indexed": true,
          "internalType": "address",
          "name": "oldWatchtower",
          "type": "address"
        },
        {
          "indexed": true,
          "internalType": "address",
          "name": "newWatchtower",
          "type": "address"
        }
      ],
      "name": "WatchtowerChanged",
      "type": "event"
    },
    {
      "inputs": [
        {
          "internalType": "address",
          "name": "owner",
          "type": "address"
        },
        {
          "internalType": "address",
          "name": "spender",
          "type": "address"
        }
      ],
      "name": "allowance",
      "outputs": [
        {
          "internalType": "uint256",
          "name": "",
          "type": "uint256"
        }
      ],
      "stateMutability": "view",
      "type": "function"
    },
    {
      "inputs": [
        {
          "internalType": "address",
          "name": "spender",
          "type": "address"
        },
        {
          "internalType": "uint256",
          "name": "value",
          "type": "uint256"
        }
      ],
      "name": "approve",
      "outputs": [
        {
          "internalType": "bool",
          "name": "",
          "type": "bool"
        }
      ],
      "stateMutability": "nonpayable",
      "type": "function"
    },
    {
      "inputs": [
        {
          "internalType": "address",
          "name": "account",
          "type": "address"
        }
      ],
      "name": "balanceOf",
      "outputs": [
        {
          "internalType": "uint256",
          "name": "",
          "type": "uint256"
        }
      ],
      "stateMutability": "view",
      "type": "function"
    },
    {
      "inputs": [],
      "name": "circuitBreakerTrigger",
      "outputs": [],
      "stateMutability": "nonpayable",
      "type": "function"
    },
    {
      "inputs": [],
      "name": "decimals",
      "outputs": [
        {
          "internalType": "uint8",
          "name": "",
          "type": "uint8"
        }
      ],
      "stateMutability": "view",
      "type": "function"
    },
    {
      "inputs": [],
      "name": "name",
      "outputs": [
        {
          "internalType": "string",
          "name": "",
          "type": "string"
        }
      ],
      "stateMutability": "view",
      "type": "function"
    },
    {
      "inputs": [
        {
          "internalType": "address",
          "name": "",
          "type": "address"
        }
      ],
      "name": "nonces",
      "outputs": [
        {
          "internalType": "uint256",
          "name": "",
          "type": "uint256"
        }
      ],
      "stateMutability": "view",
      "type": "function"
    },
    {
      "inputs": [],
      "name": "owner",
      "outputs": [
        {
          "internalType": "address",
          "name": "",
          "type": "address"
        }
      ],
      "stateMutability": "view",
      "type": "function"
    },
    {
      "inputs": [
        {
          "internalType": "bytes",
          "name": "signature",
          "type": "bytes"
        }
      ],
      "name": "pauseByWatchtower",
      "outputs": [],
      "stateMutability": "nonpayable",
      "type": "function"
    },
    {
      "inputs": [],
      "name": "paused",
      "outputs": [
        {
          "internalType": "bool",
          "name": "",
          "type": "bool"
        }
      ],
      "stateMutability": "view",
      "type": "function"
    },
    {
      "inputs": [],
      "name": "renounceOwnership",
      "outputs": [],
      "stateMutability": "nonpayable",
      "type": "function"
    },
    {
      "inputs": [],
      "name": "resumeService",
      "outputs": [],
      "stateMutability": "nonpayable",
      "type": "function"
    },
    {
      "inputs": [
        {
          "internalType": "address",
          "name": "_watchtower",
          "type": "address"
        }
      ],
      "name": "setWatchtower",
      "outputs": [],
      "stateMutability": "nonpayable",
      "type": "function"
    },
    {
      "inputs": [],
      "name": "symbol",
      "outputs": [
        {
          "internalType": "string",
          "name": "",
          "type": "string"
        }
      ],
      "stateMutability": "view",
      "type": "function"
    },
    {
      "inputs": [],
      "name": "totalSupply",
      "outputs": [
        {
          "internalType": "uint256",
          "name": "",
          "type": "uint256"
        }
      ],
      "stateMutability": "view",
      "type": "function"
    },
    {
      "inputs": [
        {
          "internalType": "address",
          "name": "to",
          "type": "address"
        },
        {
          "internalType": "uint256",
          "name": "value",
          "type": "uint256"
        }
      ],
      "name": "transfer",
      "outputs": [
        {
          "internalType": "bool",
          "name": "",
          "type": "bool"
        }
      ],
      "stateMutability": "nonpayable",
      "type": "function"
    },
    {
      "inputs": [
        {
          "internalType": "address",
          "name": "from",
          "type": "address"
        },
        {
          "internalType": "address",
          "name": "to",
          "type": "address"
        },
        {
          "internalType": "uint256",
          "name": "value",
          "type": "uint256"
        }
      ],
      "name": "transferFrom",
      "outputs": [
        {
          "internalType": "bool",
          "name": "",
          "type": "bool"
        }
      ],
      "stateMutability": "nonpayable",
      "type": "function"
    },
    {
      "inputs": [
        {
          "internalType": "address",
          "name": "newOwner",
          "type": "address"
        }
      ],
      "name": "transferOwnership",
      "outputs": [],
      "stateMutability": "nonpayable",
      "type": "function"
    },
    {
      "inputs": [],
      "name": "watchtower",
      "outputs": [
        {
          "internalType": "address",
          "name": "",
          "type": "address"
        }
      ],
      "stateMutability": "view",
      "type": "function"
    }
  ],
  "bytecode": "0x60806040523480156200001157600080fd5b50336040518060400160405280600e81526020016d2322299029ba30b13632b1b7b4b760911b8152506040518060400160405280600381526020016246445360e81b815250816003908162000067919062000397565b50600462000076828262000397565b5050506001600160a01b038116620000a957604051631e4fbdf760e01b8152600060048201526024015b60405180910390fd5b620000b481620000e3565b50620000dd33620000c86012600a62000578565b620000d790620f424062000590565b6200013d565b620005c0565b600580546001600160a01b03838116610100818102610100600160a81b031985161790945560405193909204169182907f8be0079c531659141344cd1fd0a4f28419497f9722a3daafe3b4186f6b6457e090600090a35050565b6001600160a01b038216620001695760405163ec442f0560e01b815260006004820152602401620000a0565b62000177600083836200017b565b5050565b6200018562000197565b62000192838383620001be565b505050565b60055460ff1615620001bc5760405163d93c066560e01b815260040160405180910390fd5b565b6001600160a01b038316620001ed578060026000828254620001e19190620005aa565b90915550620002619050565b6001600160a01b03831660009081526020819052604090205481811015620002425760405163391434e360e21b81526001600160a01b03851660048201526024810182905260448101839052606401620000a0565b6001600160a01b03841660009081526020819052604090209082900390555b6001600160a01b0382166200027f576002805482900390556200029e565b6001600160a01b03821660009081526020819052604090208054820190555b816001600160a01b0316836001600160a01b03167fddf252ad1be2c89b69c2b068fc378daa952ba7f163c4a11628f55a4df523b3ef83604051620002e491815260200190565b60405180910390a3505050565b634e487b7160e01b600052604160045260246000fd5b600181811c908216806200031c57607f821691505b6020821081036200033d57634e487b7160e01b600052602260045260246000fd5b50919050565b601f82111562000192576000816000526020600020601f850160051c810160208610156200036e5750805b601f850160051c820191505b818110156200038f578281556001016200037a565b505050505050565b81516001600160401b03811115620003b357620003b3620002f1565b620003cb81620003c4845462000307565b8462000343565b602080601f831160018114620004035760008415620003ea5750858301515b600019600386901b1c1916600185901b1785556200038f565b600085815260208120601f198616915b82811015620004345788860151825594840194600190910190840162000413565b5085821015620004535787850151600019600388901b60f8161c191681555b5050505050600190811b01905550565b634e487b7160e01b600052601160045260246000fd5b600181815b80851115620004ba5781600019048211156200049e576200049e62000463565b80851615620004ac57918102915b93841c93908002906200047e565b509250929050565b600082620004d35750600162000572565b81620004e25750600062000572565b8160018114620004fb5760028114620005065762000526565b600191505062000572565b60ff8411156200051a576200051a62000463565b50506001821b62000572565b5060208310610133831016604e8410600b84101617156200054b575081810a62000572565b62000557838362000479565b80600019048211156200056e576200056e62000463565b0290505b92915050565b60006200058960ff841683620004c2565b9392505050565b808202811582820484141762000572576200057262000463565b8082018082111562000572576200057262000463565b610fa380620005d06000396000f3fe608060405234801561001057600080fd5b50600436106101215760003560e01c80637ecebe00116100ad578063ac17db6311610071578063ac17db631461025d578063db6003d114610270578063dd62ed3e14610278578063f2fde38b146102b1578063fe2d567e146102c457600080fd5b80637ecebe00146101e15780637f7673f9146102015780638da5cb5b1461022c57806395d89b4114610242578063a9059cbb1461024a57600080fd5b8063313ce567116100f4578063313ce5671461018c57806354cbea041461019b5780635c975abb146101a557806370a08231146101b0578063715018a6146101d957600080fd5b806306fdde0314610126578063095ea7b31461014457806318160ddd1461016757806323b872dd14610179575b600080fd5b61012e6102d7565b60405161013b9190610d43565b60405180910390f35b610157610152366004610dae565b610369565b604051901515815260200161013b565b6002545b60405190815260200161013b565b610157610187366004610dd8565b610383565b6040516012815260200161013b565b6101a36103a7565b005b60055460ff16610157565b61016b6101be366004610e14565b6001600160a01b031660009081526020819052604090205490565b6101a36103b9565b61016b6101ef366004610e14565b60076020526000908152604090205481565b600654610214906001600160a01b031681565b6040516001600160a01b03909116815260200161013b565b60055461010090046001600160a01b0316610214565b61012e6103cb565b610157610258366004610dae565b6103da565b6101a361026b366004610e36565b6103e8565b6101a3610625565b61016b610286366004610ea8565b6001600160a01b03918216600090815260016020908152604080832093909416825291909152205490565b6101a36102bf366004610e14565b610635565b6101a36102d2366004610e14565b610673565b6060600380546102e690610edb565b80601f016020809104026020016040519081016040528092919081815260200182805461031290610edb565b801561035f5780601f106103345761010080835404028352916020019161035f565b820191906000526020600020905b81548152906001019060200180831161034257829003601f168201915b5050505050905090565b6000336103778185856106d7565b60019150505b92915050565b6000336103918582856106e9565b61039c858585610768565b506001949350505050565b6103af6107c7565b6103b76107fa565b565b6103c16107c7565b6103b76000610854565b6060600480546102e690610edb565b600033610377818585610768565b6006546001600160a01b031661043a5760405162461bcd60e51b815260206004820152601260248201527115d85d18da1d1bddd95c881b9bdd081cd95d60721b60448201526064015b60405180910390fd5b60055460ff161561047e5760405162461bcd60e51b815260206004820152600e60248201526d105b1c9958591e481c185d5cd95960921b6044820152606401610431565b6006546001600160a01b031660009081526007602090815260408083205481516e454d455247454e43595f504155534560881b8185015246602f8201523060601b6bffffffffffffffffffffffff1916604f8201526063808201929092528251808203909201825260830190915280519101207f19457468657265756d205369676e6564204d6573736167653a0a3332000000008252601c819052603c822090915060006105628286868080601f0160208091040260200160405190810160405280939291908181526020018383808284376000920191909152506108ae92505050565b6006549091506001600160a01b038083169116146105b65760405162461bcd60e51b8152602060048201526011602482015270496e76616c6964207369676e617475726560781b6044820152606401610431565b6006546001600160a01b031660009081526007602052604081208054916105dc83610f2b565b91905055506105e96107fa565b60405142815233907fda446f2e18ad207e52a82f9f2662d460b5ab850d9cf3e0cd35d84df91e4623f79060200160405180910390a25050505050565b61062d6107c7565b6103b76108d8565b61063d6107c7565b6001600160a01b03811661066757604051631e4fbdf760e01b815260006004820152602401610431565b61067081610854565b50565b61067b6107c7565b6006546040516001600160a01b038084169216907ff901c4e5f01af377c0b9a569391f1308becb8f9f6871fbc8f8de25cd794194a690600090a3600680546001600160a01b0319166001600160a01b0392909216919091179055565b6106e48383836001610911565b505050565b6001600160a01b03838116600090815260016020908152604080832093861683529290522054600019811015610762578181101561075357604051637dc7a0d960e11b81526001600160a01b03841660048201526024810182905260448101839052606401610431565b61076284848484036000610911565b50505050565b6001600160a01b03831661079257604051634b637e8f60e11b815260006004820152602401610431565b6001600160a01b0382166107bc5760405163ec442f0560e01b815260006004820152602401610431565b6106e48383836109e6565b6005546001600160a01b036101009091041633146103b75760405163118cdaa760e01b8152336004820152602401610431565b6108026109f9565b6005805460ff191660011790557f62e78cea01bee320cd4e420270b5ea74000d11b0c9f74754ebdbfc544b05a2586108373390565b6040516001600160a01b03909116815260200160405180910390a1565b600580546001600160a01b03838116610100818102610100600160a81b031985161790945560405193909204169182907f8be0079c531659141344cd1fd0a4f28419497f9722a3daafe3b4186f6b6457e090600090a35050565b6000806000806108be8686610a1d565b9250925092506108ce8282610a6a565b5090949350505050565b6108e0610b27565b6005805460ff191690557f5db9ee0a495bf2e6ff9c91a7834c1ba4fdd244a5e8aa4e537bd38aeae4b073aa33610837565b6001600160a01b03841661093b5760405163e602df0560e01b815260006004820152602401610431565b6001600160a01b03831661096557604051634a1406b160e11b815260006004820152602401610431565b6001600160a01b038085166000908152600160209081526040808320938716835292905220829055801561076257826001600160a01b0316846001600160a01b03167f8c5be1e5ebec7d5bd14f71427d1e84f3dd0314c0f7b2291e5b200ac8c7c3b925846040516109d891815260200190565b60405180910390a350505050565b6109ee6109f9565b6106e4838383610b4a565b60055460ff16156103b75760405163d93c066560e01b815260040160405180910390fd5b60008060008351604103610a575760208401516040850151606086015160001a610a4988828585610c74565b955095509550505050610a63565b50508151600091506002905b9250925092565b6000826003811115610a7e57610a7e610f44565b03610a87575050565b6001826003811115610a9b57610a9b610f44565b03610ab95760405163f645eedf60e01b815260040160405180910390fd5b6002826003811115610acd57610acd610f44565b03610aee5760405163fce698f760e01b815260048101829052602401610431565b6003826003811115610b0257610b02610f44565b03610b23576040516335e2f38360e21b815260048101829052602401610431565b5050565b60055460ff166103b757604051638dfc202b60e01b815260040160405180910390fd5b6001600160a01b038316610b75578060026000828254610b6a9190610f5a565b90915550610be79050565b6001600160a01b03831660009081526020819052604090205481811015610bc85760405163391434e360e21b81526001600160a01b03851660048201526024810182905260448101839052606401610431565b6001600160a01b03841660009081526020819052604090209082900390555b6001600160a01b038216610c0357600280548290039055610c22565b6001600160a01b03821660009081526020819052604090208054820190555b816001600160a01b0316836001600160a01b03167fddf252ad1be2c89b69c2b068fc378daa952ba7f163c4a11628f55a4df523b3ef83604051610c6791815260200190565b60405180910390a3505050565b600080807f7fffffffffffffffffffffffffffffff5d576e7357a4501ddfe92f46681b20a0841115610caf5750600091506003905082610d39565b604080516000808252602082018084528a905260ff891692820192909252606081018790526080810186905260019060a0016020604051602081039080840390855afa158015610d03573d6000803e3d6000fd5b5050604051601f1901519150506001600160a01b038116610d2f57506000925060019150829050610d39565b9250600091508190505b9450945094915050565b60006020808352835180602085015260005b81811015610d7157858101830151858201604001528201610d55565b506000604082860101526040601f19601f8301168501019250505092915050565b80356001600160a01b0381168114610da957600080fd5b919050565b60008060408385031215610dc157600080fd5b610dca83610d92565b946020939093013593505050565b600080600060608486031215610ded57600080fd5b610df684610d92565b9250610e0460208501610d92565b9150604084013590509250925092565b600060208284031215610e2657600080fd5b610e2f82610d92565b9392505050565b60008060208385031215610e4957600080fd5b823567ffffffffffffffff80821115610e6157600080fd5b818501915085601f830112610e7557600080fd5b813581811115610e8457600080fd5b866020828501011115610e9657600080fd5b60209290920196919550909350505050565b60008060408385031215610ebb57600080fd5b610ec483610d92565b9150610ed260208401610d92565b90509250929050565b600181811c90821680610eef57607f821691505b602082108103610f0f57634e487b7160e01b600052602260045260246000fd5b50919050565b634e487b7160e01b600052601160045260246000fd5b600060018201610f3d57610f3d610f15565b5060010190565b634e487b7160e01b600052602160045260246000fd5b8082018082111561037d5761037d610f1556fea2646970667358221220c32c46c9d340c32cc91a1f07240dda4f6808e638166e4c39bf73e6ea5225f9b264736f6c63430008180033",
  "linkReferences": {},
  "deployedLinkReferences": {}
}