{
  "_format": "hh-sol-artifact-1",
  "contractName": "FDSStablecoin",
  "sourceName": "contracts/FDSStablecoin.sol",
  "abi": [
    {
      "inputs": [],
      "stateMutability": "nonpayable",
      "type": "constructor"
    },
    {
      "inputs": [],
      "name": "ECDSAInvalidSignature",
      "type": "error"
    },
    {
      "inputs": [
        {
          "internalType": "uint256",
          "name": "length",
          "type": "uint256"
        }
      ],
      "name": "ECDSAInvalidSignatureLength",
      "type": "error"
    },
    {
      "inputs": [
        {
          "internalType": "bytes32",
          "name": "s",
          "type": "bytes32"
        }
      ],
      "name": "ECDSAInvalidSignatureS",
      "type": "error"
    },
    {
      "inputs": [
        {
          "internalType": "address",
          "name": "spender",
          "type": "address"
        },
        {
          "internalType": "uint256",
          "name": "allowance",
          "type": "uint256"
        },
        {
          "internalType": "uint256",
          "name": "needed",
          "type": "uint256"
        }
      ],
      "name": "ERC20InsufficientAllowance",
      "type": "error"
    },
    {
      "inputs": [
        {
          "internalType": "address",
          "name": "sender",
          "type": "address"
        },
        {
          "internalType": "uint256",
          "name": "balance",
          "type": "uint256"
        },
        {
          "internalType": "uint256",
          "name": "needed",
          "type": "uint256"
        }
      ],
      "name": "ERC20InsufficientBalance",
      "type": "error"
    },
    {
      "inputs": [
        {
          "internalType": "address",
          "name": "approver",
          "type": "address"
        }
      ],
      "name": "ERC20InvalidApprover",
      "type": "error"
    },
    {
      "inputs": [
        {
          "internalType": "address",
          "name": "receiver",
          "type": "address"
        }
      ],
      "name": "ERC20InvalidReceiver",
      "type": "error"
    },
    {
      "inputs": [
        {
          "internalType": "address",
          "name": "sender",
          "type": "address"
        }
      ],
      "name": "ERC20InvalidSender",
      "type": "error"
    },
    {
      "inputs": [
        {
          "internalType": "address",
          "name": "spender",
          "type": "address"
        }
      ],
      "name": "ERC20InvalidSpender",
      "type": "error"
    },
    {
      "inputs": [],
      "name": "EnforcedPause",
      "type": "error"
    },
    {
      "inputs": [],
      "name": "ExpectedPause",
      "type": "error"
    },
    {
      "inputs": [
        {
          "internalType": "address",
          "name": "owner",
          "type": "address"
        }
      ],
      "name": "OwnableInvalidOwner",
      "type": "error"
    },
    {
      "inputs": [
        {
          "internalType": "address",
          "name": "account",
          "type": "address"
        }
      ],
      "name": "OwnableUnauthorizedAccount",
      "type": "error"
    },
    {
      "anonymous": false,
      "inputs": [
        {
          "indexed": true,
          "internalType": "address",
          "name": "owner",
          "type": "address"
        },
        {
          "indexed": true,
          "internalType": "address",
          "name": "spender",
          "type": "address"
        },
        {
          "indexed": false,
          "internalType": "uint256",
          "name": "value",
          "type": "uint256"
        }
      ],
      "name": "Approval",
      "type": "event"
    },
    {
      "anonymous": false,
      "inputs": [
        {
          "indexed": true,
          "internalType": "address",
          "name": "account",
          "type": "address"
        }
      ],
      "name": "Blacklisted",
      "type": "event"
    },
    {
      "anonymous": false,
      "inputs": [
        {
          "indexed": false,
          "internalType": "string",
          "name": "reason",
          "type": "string"
        },
        {
          "indexed": false,
          "internalType": "uint256",
          "name": "timestamp",
          "type": "uint256"
        }
      ],
      "name": "CircuitBreakerTriggered",
      "type": "event"
    },
    {
      "anonymous": false,
      "inputs": [
        {
          "indexed": true,
          "internalType": "address",
          "name": "triggerer",
          "type": "address"
        },
        {
          "indexed": false,
          "internalType": "uint256",
          "name": "timestamp",
          "type": "uint256"
        }
      ],
      "name": "EmergencyPausedByWatchtower",
      "type": "event"
    },
    {
      "anonymous": false,
      "inputs": [
        {
          "indexed": true,
          "internalType": "address",
          "name": "previousOwner",
          "type": "address"
        },
        {
          "indexed": true,
          "internalType": "address",
          "name": "newOwner",
          "type": "address"
        }
      ],
      "name": "OwnershipTransferred",
      "type": "event"
    },
    {
      "anonymous": false,
      "inputs": [
        {
          "indexed": false,
          "internalType": "address",
          "name": "account",
          "type": "address"
        }
      ],
      "name": "Paused",
      "type": "event"
    },
    {
      "anonymous": false,
      "inputs": [
        {
          "indexed": false,
          "internalType": "uint256",
          "name": "newLimit",
          "type": "uint256"
        }
      ],
      "name": "RateLimitAttributesChanged",
      "type": "event"
    },
    {
      "anonymous": false,
      "inputs": [
        {
          "indexed": true,
          "internalType": "address",
          "name": "from",
          "type": "address"
        },
        {
          "indexed": true,
          "internalType": "address",
          "name": "to",
          "type": "address"
        },
        {
          "indexed": false,
          "internalType": "uint256",
          "name": "value",
          "type": "uint256"
        }
      ],
      "name": "Transfer",
      "type": "event"
    },
    {
      "anonymous": false,
      "inputs": [
        {
          "indexed": true,
          "internalType": "address",
          "name": "account",
          "type": "address"
        }
      ],
      "name": "UnBlacklisted",
      "type": "event"
    },
    {
      "anonymous": false,
      "inputs": [
        {
          "indexed": false,
          "internalType": "address",
          "name": "account",
          "type": "address"
        }
      ],
      "name": "Unpaused",
      "type": "event"
    },
    {
      "anonymous": false,
      "inputs": [
        {
          "indexed": true,
          "internalType": "address",
          "name": "oldWatchtower",
          "type": "address"
        },
        {
          "indexed": true,
          "internalType": "address",
          "name": "newWatchtower",
          "type": "address"
        }
      ],
      "name": "WatchtowerChanged",
      "type": "event"
    },
    {
      "inputs": [],
      "name": "RATE_LIMIT_PERIOD",
      "outputs": [
        {
          "internalType": "uint256",
          "name": "",
          "type": "uint256"
        }
      ],
      "stateMutability": "view",
      "type": "function"
    },
    {
      "inputs": [
        {
          "internalType": "address",
          "name": "owner",
          "type": "address"
        },
        {
          "internalType": "address",
          "name": "spender",
          "type": "address"
        }
      ],
      "name": "allowance",
      "outputs": [
        {
          "internalType": "uint256",
          "name": "",
          "type": "uint256"
        }
      ],
      "stateMutability": "view",
      "type": "function"
    },
    {
      "inputs": [
        {
          "internalType": "address",
          "name": "spender",
          "type": "address"
        },
        {
          "internalType": "uint256",
          "name": "value",
          "type": "uint256"
        }
      ],
      "name": "approve",
      "outputs": [
        {
          "internalType": "bool",
          "name": "",
          "type": "bool"
        }
      ],
      "stateMutability": "nonpayable",
      "type": "function"
    },
    {
      "inputs": [
        {
          "internalType": "address",
          "name": "account",
          "type": "address"
        }
      ],
      "name": "balanceOf",
      "outputs": [
        {
          "internalType": "uint256",
          "name": "",
          "type": "uint256"
        }
      ],
      "stateMutability": "view",
      "type": "function"
    },
    {
      "inputs": [
        {
          "internalType": "address",
          "name": "account",
          "type": "address"
        }
      ],
      "name": "blacklistAccount",
      "outputs": [],
      "stateMutability": "nonpayable",
      "type": "function"
    },
    {
      "inputs": [],
      "name": "circuitBreakerTrigger",
      "outputs": [],
      "stateMutability": "nonpayable",
      "type": "function"
    },
    {
      "inputs": [],
      "name": "currentPeriodEnd",
      "outputs": [
        {
          "internalType": "uint256",
          "name": "",
          "type": "uint256"
        }
      ],
      "stateMutability": "view",
      "type": "function"
    },
    {
      "inputs": [],
      "name": "currentPeriodMintAmount",
      "outputs": [
        {
          "internalType": "uint256",
          "name": "",
          "type": "uint256"
        }
      ],
      "stateMutability": "view",
      "type": "function"
    },
    {
      "inputs": [],
      "name": "decimals",
      "outputs": [
        {
          "internalType": "uint8",
          "name": "",
          "type": "uint8"
        }
      ],
      "stateMutability": "view",
      "type": "function"
    },
    {
      "inputs": [
        {
          "internalType": "uint256",
          "name": "amount",
          "type": "uint256"
        }
      ],
      "name": "exploitMint",
      "outputs": [],
      "stateMutability": "nonpayable",
      "type": "function"
    },
    {
      "inputs": [
        {
          "internalType": "address",
          "name": "account",
          "type": "address"
        }
      ],
      "name": "isBlacklisted",
      "outputs": [
        {
          "internalType": "bool",
          "name": "",
          "type": "bool"
        }
      ],
      "stateMutability": "view",
      "type": "function"
    },
    {
      "inputs": [],
      "name": "mintLimitPerPeriod",
      "outputs": [
        {
          "internalType": "uint256",
          "name": "",
          "type": "uint256"
        }
      ],
      "stateMutability": "view",
      "type": "function"
    },
    {
      "inputs": [],
      "name": "name",
      "outputs": [
        {
          "internalType": "string",
          "name": "",
          "type": "string"
        }
      ],
      "stateMutability": "view",
      "type": "function"
    },
    {
      "inputs": [
        {
          "internalType": "address",
          "name": "",
          "type": "address"
        }
      ],
      "name": "nonces",
      "outputs": [
        {
          "internalType": "uint256",
          "name": "",
          "type": "uint256"
        }
      ],
      "stateMutability": "view",
      "type": "function"
    },
    {
      "inputs": [],
      "name": "owner",
      "outputs": [
        {
          "internalType": "address",
          "name": "",
          "type": "address"
        }
      ],
      "stateMutability": "view",
      "type": "function"
    },
    {
      "inputs": [
        {
          "internalType": "bytes",
          "name": "signature",
          "type": "bytes"
        }
      ],
      "name": "pauseByWatchtower",
      "outputs": [],
      "stateMutability": "nonpayable",
      "type": "function"
    },
    {
      "inputs": [],
      "name": "paused",
      "outputs": [
        {
          "internalType": "bool",
          "name": "",
          "type": "bool"
        }
      ],
      "stateMutability": "view",
      "type": "function"
    },
    {
      "inputs": [],
      "name": "renounceOwnership",
      "outputs": [],
      "stateMutability": "nonpayable",
      "type": "function"
    },
    {
      "inputs": [],
      "name": "resumeService",
      "outputs": [],
      "stateMutability": "nonpayable",
      "type": "function"
    },
    {
      "inputs": [
        {
          "internalType": "uint256",
          "name": "_newLimit",
          "type": "uint256"
        }
      ],
      "name": "setRateLimit",
      "outputs": [],
      "stateMutability": "nonpayable",
      "type": "function"
    },
    {
      "inputs": [
        {
          "internalType": "address",
          "name": "_watchtower",
          "type": "address"
        }
      ],
      "name": "setWatchtower",
      "outputs": [],
      "stateMutability": "nonpayable",
      "type": "function"
    },
    {
      "inputs": [],
      "name": "symbol",
      "outputs": [
        {
          "internalType": "string",
          "name": "",
          "type": "string"
        }
      ],
      "stateMutability": "view",
      "type": "function"
    },
    {
      "inputs": [],
      "name": "totalSupply",
      "outputs": [
        {
          "internalType": "uint256",
          "name": "",
          "type": "uint256"
        }
      ],
      "stateMutability": "view",
      "type": "function"
    },
    {
      "inputs": [
        {
          "internalType": "address",
          "name": "to",
          "type": "address"
        },
        {
          "internalType": "uint256",
          "name": "value",
          "type": "uint256"
        }
      ],
      "name": "transfer",
      "outputs": [
        {
          "internalType": "bool",
          "name": "",
          "type": "bool"
        }
      ],
      "stateMutability": "nonpayable",
      "type": "function"
    },
    {
      "inputs": [
        {
          "internalType": "address",
          "name": "from",
          "type": "address"
        },
        {
          "internalType": "address",
          "name": "to",
          "type": "address"
        },
        {
          "internalType": "uint256",
          "name": "value",
          "type": "uint256"
        }
      ],
      "name": "transferFrom",
      "outputs": [
        {
          "internalType": "bool",
          "name": "",
          "type": "bool"
        }
      ],
      "stateMutability": "nonpayable",
      "type": "function"
    },
    {
      "inputs": [
        {
          "internalType": "address",
          "name": "newOwner",
          "type": "address"
        }
      ],
      "name": "transferOwnership",
      "outputs": [],
      "stateMutability": "nonpayable",
      "type": "function"
    },
    {
      "inputs": [
        {
          "internalType": "address",
          "name": "account",
          "type": "address"
        }
      ],
      "name": "unBlacklistAccount",
      "outputs": [],
      "stateMutability": "nonpayable",
      "type": "function"
    },
    {
      "inputs": [],
      "name": "watchtower",
      "outputs": [
        {
          "internalType": "address",
          "name": "",
          "type": "address"
        }
      ],
      "stateMutability": "view",
      "type": "function"
    }
  ],
  "bytecode": "0x60806040523480156200001157600080fd5b50336040518060400160405280600e81526020016d2322299029ba30b13632b1b7b4b760911b8152506040518060400160405280600381526020016246445360e81b815250816003908162000067919062000607565b50600462000076828262000607565b5050506001600160a01b038116620000a957604051631e4fbdf760e01b8152600060048201526024015b60405180910390fd5b620000b4816200013f565b50620000c36012600a620007e8565b620000d2906207a12062000800565b600855620000e3610e10426200081a565b6009556000196008556200011433620000ff6012600a620007e8565b6200010e90620f424062000800565b62000199565b620001226012600a620007e8565b62000131906207a12062000800565b6008556000600a5562000830565b600580546001600160a01b03838116610100818102610100600160a81b031985161790945560405193909204169182907f8be0079c531659141344cd1fd0a4f28419497f9722a3daafe3b4186f6b6457e090600090a35050565b6001600160a01b038216620001c55760405163ec442f0560e01b815260006004820152602401620000a0565b620001d360008383620001d7565b5050565b620001e16200029c565b6001600160a01b0383166000908152600b602052604090205460ff16806200022157506001600160a01b0382166000908152600b602052604090205460ff165b15620002705760405162461bcd60e51b815260206004820152601660248201527f4164647265737320697320626c61636b6c6973746564000000000000000000006044820152606401620000a0565b6001600160a01b0383166200028a576200028a81620002c3565b62000297838383620003d1565b505050565b60055460ff1615620002c15760405163d93c066560e01b815260040160405180910390fd5b565b600954421115620002e557620002dc610e10426200081a565b6009556000600a555b80600a6000828254620002f991906200081a565b9091555050600854600a541115620003ce576200031562000504565b604080518181526013818301527f4d696e74204c696d697420457863656564656400000000000000000000000000606082015242602082015290517f9a67283e259b60ad992613fe36fe808ce9a65fc69b7893a856fbe5f926f251849181900360800190a160405162461bcd60e51b815260206004820152602260248201527f52617465206c696d69742065786365656465643a2053797374656d2050617573604482015261195960f21b6064820152608401620000a0565b50565b6001600160a01b03831662000400578060026000828254620003f491906200081a565b90915550620004749050565b6001600160a01b03831660009081526020819052604090205481811015620004555760405163391434e360e21b81526001600160a01b03851660048201526024810182905260448101839052606401620000a0565b6001600160a01b03841660009081526020819052604090209082900390555b6001600160a01b0382166200049257600280548290039055620004b1565b6001600160a01b03821660009081526020819052604090208054820190555b816001600160a01b0316836001600160a01b03167fddf252ad1be2c89b69c2b068fc378daa952ba7f163c4a11628f55a4df523b3ef83604051620004f791815260200190565b60405180910390a3505050565b6200050e6200029c565b6005805460ff191660011790557f62e78cea01bee320cd4e420270b5ea74000d11b0c9f74754ebdbfc544b05a258620005443390565b6040516001600160a01b03909116815260200160405180910390a1565b634e487b7160e01b600052604160045260246000fd5b600181811c908216806200058c57607f821691505b602082108103620005ad57634e487b7160e01b600052602260045260246000fd5b50919050565b601f82111562000297576000816000526020600020601f850160051c81016020861015620005de5750805b601f850160051c820191505b81811015620005ff57828155600101620005ea565b505050505050565b81516001600160401b0381111562000623576200062362000561565b6200063b8162000634845462000577565b84620005b3565b602080601f8311600181146200067357600084156200065a5750858301515b600019600386901b1c1916600185901b178555620005ff565b600085815260208120601f198616915b82811015620006a45788860151825594840194600190910190840162000683565b5085821015620006c35787850151600019600388901b60f8161c191681555b5050505050600190811b01905550565b634e487b7160e01b600052601160045260246000fd5b600181815b808511156200072a5781600019048211156200070e576200070e620006d3565b808516156200071c57918102915b93841c9390800290620006ee565b509250929050565b6000826200074357506001620007e2565b816200075257506000620007e2565b81600181146200076b5760028114620007765762000796565b6001915050620007e2565b60ff8411156200078a576200078a620006d3565b50506001821b620007e2565b5060208310610133831016604e8410600b8410161715620007bb575081810a620007e2565b620007c78383620006e9565b8060001904821115620007de57620007de620006d3565b0290505b92915050565b6000620007f960ff84168362000732565b9392505050565b8082028115828204841417620007e257620007e2620006d3565b80820180821115620007e257620007e2620006d3565b6113be80620008406000396000f3fe608060405234801561001057600080fd5b50600436106101c45760003560e01c80637ecebe00116100f9578063c287184e11610097578063dd62ed3e11610071578063dd62ed3e1461038b578063f2fde38b146103c4578063fe2d567e146103d7578063fe575a87146103ea57600080fd5b8063c287184e1461035d578063d37b34d714610370578063db6003d11461038357600080fd5b806395d89b41116100d357806395d89b4114610326578063a9059cbb1461032e578063ac17db6314610341578063b7b188d11461035457600080fd5b80637ecebe00146102c55780637f7673f9146102e55780638da5cb5b1461031057600080fd5b806354cbea04116101665780636521ec38116101405780636521ec38146102785780636ce933991461028b57806370a0823114610294578063715018a6146102bd57600080fd5b806354cbea041461025c57806358794456146102645780635c975abb1461026d57600080fd5b806318160ddd116101a257806318160ddd1461021f57806323b872dd146102315780632db8dcfd14610244578063313ce5671461024d57600080fd5b806306fdde03146101c9578063095ea7b3146101e75780630da5f8451461020a575b600080fd5b6101d1610416565b6040516101de9190611145565b60405180910390f35b6101fa6101f53660046111b0565b6104a8565b60405190151581526020016101de565b61021d6102183660046111da565b6104c2565b005b6002545b6040519081526020016101de565b6101fa61023f3660046111fc565b610513565b61022360085481565b604051601281526020016101de565b61021d610537565b61022360095481565b60055460ff166101fa565b61021d610286366004611238565b610549565b610223600a5481565b6102236102a23660046111da565b6001600160a01b031660009081526020819052604090205490565b61021d610556565b6102236102d33660046111da565b60076020526000908152604090205481565b6006546102f8906001600160a01b031681565b6040516001600160a01b0390911681526020016101de565b60055461010090046001600160a01b03166102f8565b6101d1610568565b6101fa61033c3660046111b0565b610577565b61021d61034f366004611251565b610585565b610223610e1081565b61021d61036b366004611238565b6107c2565b61021d61037e3660046111da565b610805565b61021d610859565b6102236103993660046112c3565b6001600160a01b03918216600090815260016020908152604080832093909416825291909152205490565b61021d6103d23660046111da565b610870565b61021d6103e53660046111da565b6108ab565b6101fa6103f83660046111da565b6001600160a01b03166000908152600b602052604090205460ff1690565b606060038054610425906112f6565b80601f0160208091040260200160405190810160405280929190818152602001828054610451906112f6565b801561049e5780601f106104735761010080835404028352916020019161049e565b820191906000526020600020905b81548152906001019060200180831161048157829003601f168201915b5050505050905090565b6000336104b681858561090f565b60019150505b92915050565b6104ca610921565b6001600160a01b0381166000818152600b6020526040808220805460ff19169055517f117e3210bb9aa7d9baff172026820255c6f6c30ba8999d1c2fd88e2848137c4e9190a250565b600033610521858285610954565b61052c8585856109d3565b506001949350505050565b61053f610921565b610547610a32565b565b6105533382610a8c565b50565b61055e610921565b6105476000610ac6565b606060048054610425906112f6565b6000336104b68185856109d3565b6006546001600160a01b03166105d75760405162461bcd60e51b815260206004820152601260248201527115d85d18da1d1bddd95c881b9bdd081cd95d60721b60448201526064015b60405180910390fd5b60055460ff161561061b5760405162461bcd60e51b815260206004820152600e60248201526d105b1c9958591e481c185d5cd95960921b60448201526064016105ce565b6006546001600160a01b031660009081526007602090815260408083205481516e454d455247454e43595f504155534560881b8185015246602f8201523060601b6bffffffffffffffffffffffff1916604f8201526063808201929092528251808203909201825260830190915280519101207f19457468657265756d205369676e6564204d6573736167653a0a3332000000008252601c819052603c822090915060006106ff8286868080601f016020809104026020016040519081016040528093929190818152602001838380828437600092019190915250610b2092505050565b6006549091506001600160a01b038083169116146107535760405162461bcd60e51b8152602060048201526011602482015270496e76616c6964207369676e617475726560781b60448201526064016105ce565b6006546001600160a01b0316600090815260076020526040812080549161077983611346565b9190505550610786610a32565b60405142815233907fda446f2e18ad207e52a82f9f2662d460b5ab850d9cf3e0cd35d84df91e4623f79060200160405180910390a25050505050565b6107ca610921565b60088190556040518181527f6392f31b2e1996eb17a5d6d9cc319c157fd3ed6ff3c83011017ebb99ec29dd819060200160405180910390a150565b61080d610921565b6001600160a01b0381166000818152600b6020526040808220805460ff19166001179055517fffa4e6181777692565cf28528fc88fd1516ea86b56da075235fa575af6a4b8559190a250565b610861610921565b610869610b4a565b6000600a55565b610878610921565b6001600160a01b0381166108a257604051631e4fbdf760e01b8152600060048201526024016105ce565b61055381610ac6565b6108b3610921565b6006546040516001600160a01b038084169216907ff901c4e5f01af377c0b9a569391f1308becb8f9f6871fbc8f8de25cd794194a690600090a3600680546001600160a01b0319166001600160a01b0392909216919091179055565b61091c8383836001610b83565b505050565b6005546001600160a01b036101009091041633146105475760405163118cdaa760e01b81523360048201526024016105ce565b6001600160a01b038381166000908152600160209081526040808320938616835292905220546000198110156109cd57818110156109be57604051637dc7a0d960e11b81526001600160a01b038416600482015260248101829052604481018390526064016105ce565b6109cd84848484036000610b83565b50505050565b6001600160a01b0383166109fd57604051634b637e8f60e11b8152600060048201526024016105ce565b6001600160a01b038216610a275760405163ec442f0560e01b8152600060048201526024016105ce565b61091c838383610c58565b610a3a610d07565b6005805460ff191660011790557f62e78cea01bee320cd4e420270b5ea74000d11b0c9f74754ebdbfc544b05a258610a6f3390565b6040516001600160a01b03909116815260200160405180910390a1565b6001600160a01b038216610ab65760405163ec442f0560e01b8152600060048201526024016105ce565b610ac260008383610c58565b5050565b600580546001600160a01b03838116610100818102610100600160a81b031985161790945560405193909204169182907f8be0079c531659141344cd1fd0a4f28419497f9722a3daafe3b4186f6b6457e090600090a35050565b600080600080610b308686610d2b565b925092509250610b408282610d78565b5090949350505050565b610b52610e31565b6005805460ff191690557f5db9ee0a495bf2e6ff9c91a7834c1ba4fdd244a5e8aa4e537bd38aeae4b073aa33610a6f565b6001600160a01b038416610bad5760405163e602df0560e01b8152600060048201526024016105ce565b6001600160a01b038316610bd757604051634a1406b160e11b8152600060048201526024016105ce565b6001600160a01b03808516600090815260016020908152604080832093871683529290522082905580156109cd57826001600160a01b0316846001600160a01b03167f8c5be1e5ebec7d5bd14f71427d1e84f3dd0314c0f7b2291e5b200ac8c7c3b92584604051610c4a91815260200190565b60405180910390a350505050565b610c60610d07565b6001600160a01b0383166000908152600b602052604090205460ff1680610c9f57506001600160a01b0382166000908152600b602052604090205460ff165b15610ce55760405162461bcd60e51b81526020600482015260166024820152751059191c995cdcc81a5cc8189b1858dadb1a5cdd195960521b60448201526064016105ce565b6001600160a01b038316610cfc57610cfc81610e54565b61091c838383610f4c565b60055460ff16156105475760405163d93c066560e01b815260040160405180910390fd5b60008060008351604103610d655760208401516040850151606086015160001a610d5788828585611076565b955095509550505050610d71565b50508151600091506002905b9250925092565b6000826003811115610d8c57610d8c61135f565b03610d95575050565b6001826003811115610da957610da961135f565b03610dc75760405163f645eedf60e01b815260040160405180910390fd5b6002826003811115610ddb57610ddb61135f565b03610dfc5760405163fce698f760e01b8152600481018290526024016105ce565b6003826003811115610e1057610e1061135f565b03610ac2576040516335e2f38360e21b8152600481018290526024016105ce565b60055460ff1661054757604051638dfc202b60e01b815260040160405180910390fd5b600954421115610e7357610e6a610e1042611375565b6009556000600a555b80600a6000828254610e859190611375565b9091555050600854600a54111561055357610e9e610a32565b6040805181815260138183015272135a5b9d08131a5b5a5d08115e18d959591959606a1b606082015242602082015290517f9a67283e259b60ad992613fe36fe808ce9a65fc69b7893a856fbe5f926f251849181900360800190a160405162461bcd60e51b815260206004820152602260248201527f52617465206c696d69742065786365656465643a2053797374656d2050617573604482015261195960f21b60648201526084016105ce565b6001600160a01b038316610f77578060026000828254610f6c9190611375565b90915550610fe99050565b6001600160a01b03831660009081526020819052604090205481811015610fca5760405163391434e360e21b81526001600160a01b038516600482015260248101829052604481018390526064016105ce565b6001600160a01b03841660009081526020819052604090209082900390555b6001600160a01b03821661100557600280548290039055611024565b6001600160a01b03821660009081526020819052604090208054820190555b816001600160a01b0316836001600160a01b03167fddf252ad1be2c89b69c2b068fc378daa952ba7f163c4a11628f55a4df523b3ef8360405161106991815260200190565b60405180910390a3505050565b600080807f7fffffffffffffffffffffffffffffff5d576e7357a4501ddfe92f46681b20a08411156110b1575060009150600390508261113b565b604080516000808252602082018084528a905260ff891692820192909252606081018790526080810186905260019060a0016020604051602081039080840390855afa158015611105573d6000803e3d6000fd5b5050604051601f1901519150506001600160a01b0381166111315750600092506001915082905061113b565b9250600091508190505b9450945094915050565b60006020808352835180602085015260005b8181101561117357858101830151858201604001528201611157565b506000604082860101526040601f19601f8301168501019250505092915050565b80356001600160a01b03811681146111ab57600080fd5b919050565b600080604083850312156111c357600080fd5b6111cc83611194565b946020939093013593505050565b6000602082840312156111ec57600080fd5b6111f582611194565b9392505050565b60008060006060848603121561121157600080fd5b61121a84611194565b925061122860208501611194565b9150604084013590509250925092565b60006020828403121561124a57600080fd5b5035919050565b6000806020838503121561126457600080fd5b823567ffffffffffffffff8082111561127c57600080fd5b818501915085601f83011261129057600080fd5b81358181111561129f57600080fd5b8660208285010111156112b157600080fd5b60209290920196919550909350505050565b600080604083850312156112d657600080fd5b6112df83611194565b91506112ed60208401611194565b90509250929050565b600181811c9082168061130a57607f821691505b60208210810361132a57634e487b7160e01b600052602260045260246000fd5b50919050565b634e487b7160e01b600052601160045260246000fd5b60006001820161135857611358611330565b5060010190565b634e487b7160e01b600052602160045260246000fd5b808201808211156104bc576104bc61133056fea2646970667358221220edef981c5f69b70070582cf50d30c390ee369647cff2324f459ddaa19e0ebd9c64736f6c63430008180033",
  "linkReferences": {},
  "deployedLinkReferences": {}
}