{
  "_format": "hh-sol-artifact-1",
  "contractName": "FDSStablecoin",
  "sourceName": "contracts/FDSStablecoin.sol",
  "abi": [
    {
      "inputs": [],
      "stateMutability": "nonpayable",
      "type": "constructor"
    },
    {
      "inputs": [],
      "name": "ECDSAInvalidSignature",
      "type": "error"
    },
    {
      "inputs": [
        {
          "internalType": "uint256",
          "name": "length",
          "type": "uint256"
        }
      ],
      "name": "ECDSAInvalidSignatureLength",
      "type": "error"
    },
    {
      "inputs": [
        {
          "internalType": "bytes32",
          "name": "s",
          "type": "bytes32"
        }
      ],
      "name": "ECDSAInvalidSignatureS",
      "type": "error"
    },
    {
      "inputs": [
        {
          "internalType": "address",
          "name": "spender",
          "type": "address"
        },
        {
          "internalType": "uint256",
          "name": "allowance",
          "type": "uint256"
        },
        {
          "internalType": "uint256",
          "name": "needed",
          "type": "uint256"
        }
      ],
      "name": "ERC20InsufficientAllowance",
      "type": "error"
    },
    {
      "inputs": [
        {
          "internalType": "address",
          "name": "sender",
          "type": "address"
        },
        {
          "internalType": "uint256",
          "name": "balance",
          "type": "uint256"
        },
        {
          "internalType": "uint256",
          "name": "needed",
          "type": "uint256"
        }
      ],
      "name": "ERC20InsufficientBalance",
      "type": "error"
    },
    {
      "inputs": [
        {
          "internalType": "address",
          "name": "approver",
          "type": "address"
        }
      ],
      "name": "ERC20InvalidApprover",
      "type": "error"
    },
    {
      "inputs": [
        {
          "internalType": "address",
          "name": "receiver",
          "type": "address"
        }
      ],
      "name": "ERC20InvalidReceiver",
      "type": "error"
    },
    {
      "inputs": [
        {
          "internalType": "address",
          "name": "sender",
          "type": "address"
        }
      ],
      "name": "ERC20InvalidSender",
      "type": "error"
    },
    {
      "inputs": [
        {
          "internalType": "address",
          "name": "spender",
          "type": "address"
        }
      ],
      "name": "ERC20InvalidSpender",
      "type": "error"
    },
    {
      "inputs": [],
      "name": "EnforcedPause",
      "type": "error"
    },
    {
      "inputs": [],
      "name": "ExpectedPause",
      "type": "error"
    },
    {
      "inputs": [
        {
          "internalType": "address",
          "name": "owner",
          "type": "address"
        }
      ],
      "name": "OwnableInvalidOwner",
      "type": "error"
    },
    {
      "inputs": [
        {
          "internalType": "address",
          "name": "account",
          "type": "address"
        }
      ],
      "name": "OwnableUnauthorizedAccount",
      "type": "error"
    },
    {
      "anonymous": false,
      "inputs": [
        {
          "indexed": true,
          "internalType": "address",
          "name": "owner",
          "type": "address"
        },
        {
          "indexed": true,
          "internalType": "address",
          "name": "spender",
          "type": "address"
        },
        {
          "indexed": false,
          "internalType": "uint256",
          "name": "value",
          "type": "uint256"
        }
      ],
      "name": "Approval",
      "type": "event"
    },
    {
      "anonymous": false,
      "inputs": [
        {
          "indexed": false,
          "internalType": "string",
          "name": "reason",
          "type": "string"
        },
        {
          "indexed": false,
          "internalType": "uint256",
          "name": "timestamp",
          "type": "uint256"
        }
      ],
      "name": "CircuitBreakerTriggered",
      "type": "event"
    },
    {
      "anonymous": false,
      "inputs": [
        {
          "indexed": true,
          "internalType": "address",
          "name": "triggerer",
          "type": "address"
        },
        {
          "indexed": false,
          "internalType": "uint256",
          "name": "timestamp",
          "type": "uint256"
        }
      ],
      "name": "EmergencyPausedByWatchtower",
      "type": "event"
    },
    {
      "anonymous": false,
      "inputs": [
        {
          "indexed": true,
          "internalType": "address",
          "name": "previousOwner",
          "type": "address"
        },
        {
          "indexed": true,
          "internalType": "address",
          "name": "newOwner",
          "type": "address"
        }
      ],
      "name": "OwnershipTransferred",
      "type": "event"
    },
    {
      "anonymous": false,
      "inputs": [
        {
          "indexed": false,
          "internalType": "address",
          "name": "account",
          "type": "address"
        }
      ],
      "name": "Paused",
      "type": "event"
    },
    {
      "anonymous": false,
      "inputs": [
        {
          "indexed": false,
          "internalType": "uint256",
          "name": "newLimit",
          "type": "uint256"
        }
      ],
      "name": "RateLimitAttributesChanged",
      "type": "event"
    },
    {
      "anonymous": false,
      "inputs": [
        {
          "indexed": true,
          "internalType": "address",
          "name": "from",
          "type": "address"
        },
        {
          "indexed": true,
          "internalType": "address",
          "name": "to",
          "type": "address"
        },
        {
          "indexed": false,
          "internalType": "uint256",
          "name": "value",
          "type": "uint256"
        }
      ],
      "name": "Transfer",
      "type": "event"
    },
    {
      "anonymous": false,
      "inputs": [
        {
          "indexed": false,
          "internalType": "address",
          "name": "account",
          "type": "address"
        }
      ],
      "name": "Unpaused",
      "type": "event"
    },
    {
      "anonymous": false,
      "inputs": [
        {
          "indexed": true,
          "internalType": "address",
          "name": "oldWatchtower",
          "type": "address"
        },
        {
          "indexed": true,
          "internalType": "address",
          "name": "newWatchtower",
          "type": "address"
        }
      ],
      "name": "WatchtowerChanged",
      "type": "event"
    },
    {
      "inputs": [],
      "name": "RATE_LIMIT_PERIOD",
      "outputs": [
        {
          "internalType": "uint256",
          "name": "",
          "type": "uint256"
        }
      ],
      "stateMutability": "view",
      "type": "function"
    },
    {
      "inputs": [
        {
          "internalType": "address",
          "name": "owner",
          "type": "address"
        },
        {
          "internalType": "address",
          "name": "spender",
          "type": "address"
        }
      ],
      "name": "allowance",
      "outputs": [
        {
          "internalType": "uint256",
          "name": "",
          "type": "uint256"
        }
      ],
      "stateMutability": "view",
      "type": "function"
    },
    {
      "inputs": [
        {
          "internalType": "address",
          "name": "spender",
          "type": "address"
        },
        {
          "internalType": "uint256",
          "name": "value",
          "type": "uint256"
        }
      ],
      "name": "approve",
      "outputs": [
        {
          "internalType": "bool",
          "name": "",
          "type": "bool"
        }
      ],
      "stateMutability": "nonpayable",
      "type": "function"
    },
    {
      "inputs": [
        {
          "internalType": "address",
          "name": "account",
          "type": "address"
        }
      ],
      "name": "balanceOf",
      "outputs": [
        {
          "internalType": "uint256",
          "name": "",
          "type": "uint256"
        }
      ],
      "stateMutability": "view",
      "type": "function"
    },
    {
      "inputs": [],
      "name": "circuitBreakerTrigger",
      "outputs": [],
      "stateMutability": "nonpayable",
      "type": "function"
    },
    {
      "inputs": [],
      "name": "currentPeriodEnd",
      "outputs": [
        {
          "internalType": "uint256",
          "name": "",
          "type": "uint256"
        }
      ],
      "stateMutability": "view",
      "type": "function"
    },
    {
      "inputs": [],
      "name": "currentPeriodMintAmount",
      "outputs": [
        {
          "internalType": "uint256",
          "name": "",
          "type": "uint256"
        }
      ],
      "stateMutability": "view",
      "type": "function"
    },
    {
      "inputs": [],
      "name": "decimals",
      "outputs": [
        {
          "internalType": "uint8",
          "name": "",
          "type": "uint8"
        }
      ],
      "stateMutability": "view",
      "type": "function"
    },
    {
      "inputs": [
        {
          "internalType": "uint256",
          "name": "amount",
          "type": "uint256"
        }
      ],
      "name": "exploitMint",
      "outputs": [],
      "stateMutability": "nonpayable",
      "type": "function"
    },
    {
      "inputs": [],
      "name": "mintLimitPerPeriod",
      "outputs": [
        {
          "internalType": "uint256",
          "name": "",
          "type": "uint256"
        }
      ],
      "stateMutability": "view",
      "type": "function"
    },
    {
      "inputs": [],
      "name": "name",
      "outputs": [
        {
          "internalType": "string",
          "name": "",
          "type": "string"
        }
      ],
      "stateMutability": "view",
      "type": "function"
    },
    {
      "inputs": [
        {
          "internalType": "address",
          "name": "",
          "type": "address"
        }
      ],
      "name": "nonces",
      "outputs": [
        {
          "internalType": "uint256",
          "name": "",
          "type": "uint256"
        }
      ],
      "stateMutability": "view",
      "type": "function"
    },
    {
      "inputs": [],
      "name": "owner",
      "outputs": [
        {
          "internalType": "address",
          "name": "",
          "type": "address"
        }
      ],
      "stateMutability": "view",
      "type": "function"
    },
    {
      "inputs": [
        {
          "internalType": "bytes",
          "name": "signature",
          "type": "bytes"
        }
      ],
      "name": "pauseByWatchtower",
      "outputs": [],
      "stateMutability": "nonpayable",
      "type": "function"
    },
    {
      "inputs": [],
      "name": "paused",
      "outputs": [
        {
          "internalType": "bool",
          "name": "",
          "type": "bool"
        }
      ],
      "stateMutability": "view",
      "type": "function"
    },
    {
      "inputs": [],
      "name": "renounceOwnership",
      "outputs": [],
      "stateMutability": "nonpayable",
      "type": "function"
    },
    {
      "inputs": [],
      "name": "resumeService",
      "outputs": [],
      "stateMutability": "nonpayable",
      "type": "function"
    },
    {
      "inputs": [
        {
          "internalType": "uint256",
          "name": "_newLimit",
          "type": "uint256"
        }
      ],
      "name": "setRateLimit",
      "outputs": [],
      "stateMutability": "nonpayable",
      "type": "function"
    },
    {
      "inputs": [
        {
          "internalType": "address",
          "name": "_watchtower",
          "type": "address"
        }
      ],
      "name": "setWatchtower",
      "outputs": [],
      "stateMutability": "nonpayable",
      "type": "function"
    },
    {
      "inputs": [],
      "name": "symbol",
      "outputs": [
        {
          "internalType": "string",
          "name": "",
          "type": "string"
        }
      ],
      "stateMutability": "view",
      "type": "function"
    },
    {
      "inputs": [],
      "name": "totalSupply",
      "outputs": [
        {
          "internalType": "uint256",
          "name": "",
          "type": "uint256"
        }
      ],
      "stateMutability": "view",
      "type": "function"
    },
    {
      "inputs": [
        {
          "internalType": "address",
          "name": "to",
          "type": "address"
        },
        {
          "internalType": "uint256",
          "name": "value",
          "type": "uint256"
        }
      ],
      "name": "transfer",
      "outputs": [
        {
          "internalType": "bool",
          "name": "",
          "type": "bool"
        }
      ],
      "stateMutability": "nonpayable",
      "type": "function"
    },
    {
      "inputs": [
        {
          "internalType": "address",
          "name": "from",
          "type": "address"
        },
        {
          "internalType": "address",
          "name": "to",
          "type": "address"
        },
        {
          "internalType": "uint256",
          "name": "value",
          "type": "uint256"
        }
      ],
      "name": "transferFrom",
      "outputs": [
        {
          "internalType": "bool",
          "name": "",
          "type": "bool"
        }
      ],
      "stateMutability": "nonpayable",
      "type": "function"
    },
    {
      "inputs": [
        {
          "internalType": "address",
          "name": "newOwner",
          "type": "address"
        }
      ],
      "name": "transferOwnership",
      "outputs": [],
      "stateMutability": "nonpayable",
      "type": "function"
    },
    {
      "inputs": [],
      "name": "watchtower",
      "outputs": [
        {
          "internalType": "address",
          "name": "",
          "type": "address"
        }
      ],
      "stateMutability": "view",
      "type": "function"
    }
  ],
  "bytecode": "0x60806040523480156200001157600080fd5b50336040518060400160405280600e81526020016d2322299029ba30b13632b1b7b4b760911b8152506040518060400160405280600381526020016246445360e81b815250816003908162000067919062000578565b50600462000076828262000578565b5050506001600160a01b038116620000a957604051631e4fbdf760e01b8152600060048201526024015b60405180910390fd5b620000b4816200013f565b50620000c36012600a62000759565b620000d2906207a12062000771565b600855620000e3610e10426200078b565b6009556000196008556200011433620000ff6012600a62000759565b6200010e90620f424062000771565b62000199565b620001226012600a62000759565b62000131906207a12062000771565b6008556000600a55620007a1565b600580546001600160a01b03838116610100818102610100600160a81b031985161790945560405193909204169182907f8be0079c531659141344cd1fd0a4f28419497f9722a3daafe3b4186f6b6457e090600090a35050565b6001600160a01b038216620001c55760405163ec442f0560e01b815260006004820152602401620000a0565b620001d360008383620001d7565b5050565b620001e16200020d565b6001600160a01b038316620001fb57620001fb8162000234565b6200020883838362000342565b505050565b60055460ff1615620002325760405163d93c066560e01b815260040160405180910390fd5b565b60095442111562000256576200024d610e10426200078b565b6009556000600a555b80600a60008282546200026a91906200078b565b9091555050600854600a5411156200033f576200028662000475565b604080518181526013818301527f4d696e74204c696d697420457863656564656400000000000000000000000000606082015242602082015290517f9a67283e259b60ad992613fe36fe808ce9a65fc69b7893a856fbe5f926f251849181900360800190a160405162461bcd60e51b815260206004820152602260248201527f52617465206c696d69742065786365656465643a2053797374656d2050617573604482015261195960f21b6064820152608401620000a0565b50565b6001600160a01b038316620003715780600260008282546200036591906200078b565b90915550620003e59050565b6001600160a01b03831660009081526020819052604090205481811015620003c65760405163391434e360e21b81526001600160a01b03851660048201526024810182905260448101839052606401620000a0565b6001600160a01b03841660009081526020819052604090209082900390555b6001600160a01b038216620004035760028054829003905562000422565b6001600160a01b03821660009081526020819052604090208054820190555b816001600160a01b0316836001600160a01b03167fddf252ad1be2c89b69c2b068fc378daa952ba7f163c4a11628f55a4df523b3ef836040516200046891815260200190565b60405180910390a3505050565b6200047f6200020d565b6005805460ff191660011790557f62e78cea01bee320cd4e420270b5ea74000d11b0c9f74754ebdbfc544b05a258620004b53390565b6040516001600160a01b03909116815260200160405180910390a1565b634e487b7160e01b600052604160045260246000fd5b600181811c90821680620004fd57607f821691505b6020821081036200051e57634e487b7160e01b600052602260045260246000fd5b50919050565b601f82111562000208576000816000526020600020601f850160051c810160208610156200054f5750805b601f850160051c820191505b8181101562000570578281556001016200055b565b505050505050565b81516001600160401b03811115620005945762000594620004d2565b620005ac81620005a58454620004e8565b8462000524565b602080601f831160018114620005e45760008415620005cb5750858301515b600019600386901b1c1916600185901b17855562000570565b600085815260208120601f198616915b828110156200061557888601518255948401946001909101908401620005f4565b5085821015620006345787850151600019600388901b60f8161c191681555b5050505050600190811b01905550565b634e487b7160e01b600052601160045260246000fd5b600181815b808511156200069b5781600019048211156200067f576200067f62000644565b808516156200068d57918102915b93841c93908002906200065f565b509250929050565b600082620006b45750600162000753565b81620006c35750600062000753565b8160018114620006dc5760028114620006e75762000707565b600191505062000753565b60ff841115620006fb57620006fb62000644565b50506001821b62000753565b5060208310610133831016604e8410600b84101617156200072c575081810a62000753565b6200073883836200065a565b80600019048211156200074f576200074f62000644565b0290505b92915050565b60006200076a60ff841683620006a3565b9392505050565b808202811582820484141762000753576200075362000644565b8082018082111562000753576200075362000644565b6111ea80620007b16000396000f3fe608060405234801561001057600080fd5b50600436106101735760003560e01c8063715018a6116100de578063ac17db6311610097578063db6003d111610071578063db6003d11461030c578063dd62ed3e14610314578063f2fde38b1461034d578063fe2d567e1461036057600080fd5b8063ac17db63146102dd578063b7b188d1146102f0578063c287184e146102f957600080fd5b8063715018a6146102595780637ecebe00146102615780637f7673f9146102815780638da5cb5b146102ac57806395d89b41146102c2578063a9059cbb146102ca57600080fd5b806354cbea041161013057806354cbea04146101f657806358794456146102005780635c975abb146102095780636521ec38146102145780636ce933991461022757806370a082311461023057600080fd5b806306fdde0314610178578063095ea7b31461019657806318160ddd146101b957806323b872dd146101cb5780632db8dcfd146101de578063313ce567146101e7575b600080fd5b610180610373565b60405161018d9190610f71565b60405180910390f35b6101a96101a4366004610fdc565b610405565b604051901515815260200161018d565b6002545b60405190815260200161018d565b6101a96101d9366004611006565b61041f565b6101bd60085481565b6040516012815260200161018d565b6101fe610443565b005b6101bd60095481565b60055460ff166101a9565b6101fe610222366004611042565b610455565b6101bd600a5481565b6101bd61023e36600461105b565b6001600160a01b031660009081526020819052604090205490565b6101fe610462565b6101bd61026f36600461105b565b60076020526000908152604090205481565b600654610294906001600160a01b031681565b6040516001600160a01b03909116815260200161018d565b60055461010090046001600160a01b0316610294565b610180610474565b6101a96102d8366004610fdc565b610483565b6101fe6102eb36600461107d565b610491565b6101bd610e1081565b6101fe610307366004611042565b6106ce565b6101fe610711565b6101bd6103223660046110ef565b6001600160a01b03918216600090815260016020908152604080832093909416825291909152205490565b6101fe61035b36600461105b565b610721565b6101fe61036e36600461105b565b61075c565b60606003805461038290611122565b80601f01602080910402602001604051908101604052809291908181526020018280546103ae90611122565b80156103fb5780601f106103d0576101008083540402835291602001916103fb565b820191906000526020600020905b8154815290600101906020018083116103de57829003601f168201915b5050505050905090565b6000336104138185856107c0565b60019150505b92915050565b60003361042d8582856107d2565b610438858585610851565b506001949350505050565b61044b6108b0565b6104536108e3565b565b61045f338261093d565b50565b61046a6108b0565b6104536000610977565b60606004805461038290611122565b600033610413818585610851565b6006546001600160a01b03166104e35760405162461bcd60e51b815260206004820152601260248201527115d85d18da1d1bddd95c881b9bdd081cd95d60721b60448201526064015b60405180910390fd5b60055460ff16156105275760405162461bcd60e51b815260206004820152600e60248201526d105b1c9958591e481c185d5cd95960921b60448201526064016104da565b6006546001600160a01b031660009081526007602090815260408083205481516e454d455247454e43595f504155534560881b8185015246602f8201523060601b6bffffffffffffffffffffffff1916604f8201526063808201929092528251808203909201825260830190915280519101207f19457468657265756d205369676e6564204d6573736167653a0a3332000000008252601c819052603c8220909150600061060b8286868080601f0160208091040260200160405190810160405280939291908181526020018383808284376000920191909152506109d192505050565b6006549091506001600160a01b0380831691161461065f5760405162461bcd60e51b8152602060048201526011602482015270496e76616c6964207369676e617475726560781b60448201526064016104da565b6006546001600160a01b0316600090815260076020526040812080549161068583611172565b91905055506106926108e3565b60405142815233907fda446f2e18ad207e52a82f9f2662d460b5ab850d9cf3e0cd35d84df91e4623f79060200160405180910390a25050505050565b6106d66108b0565b60088190556040518181527f6392f31b2e1996eb17a5d6d9cc319c157fd3ed6ff3c83011017ebb99ec29dd819060200160405180910390a150565b6107196108b0565b6104536109fb565b6107296108b0565b6001600160a01b03811661075357604051631e4fbdf760e01b8152600060048201526024016104da565b61045f81610977565b6107646108b0565b6006546040516001600160a01b038084169216907ff901c4e5f01af377c0b9a569391f1308becb8f9f6871fbc8f8de25cd794194a690600090a3600680546001600160a01b0319166001600160a01b0392909216919091179055565b6107cd8383836001610a34565b505050565b6001600160a01b0383811660009081526001602090815260408083209386168352929052205460001981101561084b578181101561083c57604051637dc7a0d960e11b81526001600160a01b038416600482015260248101829052604481018390526064016104da565b61084b84848484036000610a34565b50505050565b6001600160a01b03831661087b57604051634b637e8f60e11b8152600060048201526024016104da565b6001600160a01b0382166108a55760405163ec442f0560e01b8152600060048201526024016104da565b6107cd838383610b09565b6005546001600160a01b036101009091041633146104535760405163118cdaa760e01b81523360048201526024016104da565b6108eb610b33565b6005805460ff191660011790557f62e78cea01bee320cd4e420270b5ea74000d11b0c9f74754ebdbfc544b05a2586109203390565b6040516001600160a01b03909116815260200160405180910390a1565b6001600160a01b0382166109675760405163ec442f0560e01b8152600060048201526024016104da565b61097360008383610b09565b5050565b600580546001600160a01b03838116610100818102610100600160a81b031985161790945560405193909204169182907f8be0079c531659141344cd1fd0a4f28419497f9722a3daafe3b4186f6b6457e090600090a35050565b6000806000806109e18686610b57565b9250925092506109f18282610ba4565b5090949350505050565b610a03610c5d565b6005805460ff191690557f5db9ee0a495bf2e6ff9c91a7834c1ba4fdd244a5e8aa4e537bd38aeae4b073aa33610920565b6001600160a01b038416610a5e5760405163e602df0560e01b8152600060048201526024016104da565b6001600160a01b038316610a8857604051634a1406b160e11b8152600060048201526024016104da565b6001600160a01b038085166000908152600160209081526040808320938716835292905220829055801561084b57826001600160a01b0316846001600160a01b03167f8c5be1e5ebec7d5bd14f71427d1e84f3dd0314c0f7b2291e5b200ac8c7c3b92584604051610afb91815260200190565b60405180910390a350505050565b610b11610b33565b6001600160a01b038316610b2857610b2881610c80565b6107cd838383610d78565b60055460ff16156104535760405163d93c066560e01b815260040160405180910390fd5b60008060008351604103610b915760208401516040850151606086015160001a610b8388828585610ea2565b955095509550505050610b9d565b50508151600091506002905b9250925092565b6000826003811115610bb857610bb861118b565b03610bc1575050565b6001826003811115610bd557610bd561118b565b03610bf35760405163f645eedf60e01b815260040160405180910390fd5b6002826003811115610c0757610c0761118b565b03610c285760405163fce698f760e01b8152600481018290526024016104da565b6003826003811115610c3c57610c3c61118b565b03610973576040516335e2f38360e21b8152600481018290526024016104da565b60055460ff1661045357604051638dfc202b60e01b815260040160405180910390fd5b600954421115610c9f57610c96610e10426111a1565b6009556000600a555b80600a6000828254610cb191906111a1565b9091555050600854600a54111561045f57610cca6108e3565b6040805181815260138183015272135a5b9d08131a5b5a5d08115e18d959591959606a1b606082015242602082015290517f9a67283e259b60ad992613fe36fe808ce9a65fc69b7893a856fbe5f926f251849181900360800190a160405162461bcd60e51b815260206004820152602260248201527f52617465206c696d69742065786365656465643a2053797374656d2050617573604482015261195960f21b60648201526084016104da565b6001600160a01b038316610da3578060026000828254610d9891906111a1565b90915550610e159050565b6001600160a01b03831660009081526020819052604090205481811015610df65760405163391434e360e21b81526001600160a01b038516600482015260248101829052604481018390526064016104da565b6001600160a01b03841660009081526020819052604090209082900390555b6001600160a01b038216610e3157600280548290039055610e50565b6001600160a01b03821660009081526020819052604090208054820190555b816001600160a01b0316836001600160a01b03167fddf252ad1be2c89b69c2b068fc378daa952ba7f163c4a11628f55a4df523b3ef83604051610e9591815260200190565b60405180910390a3505050565b600080807f7fffffffffffffffffffffffffffffff5d576e7357a4501ddfe92f46681b20a0841115610edd5750600091506003905082610f67565b604080516000808252602082018084528a905260ff891692820192909252606081018790526080810186905260019060a0016020604051602081039080840390855afa158015610f31573d6000803e3d6000fd5b5050604051601f1901519150506001600160a01b038116610f5d57506000925060019150829050610f67565b9250600091508190505b9450945094915050565b60006020808352835180602085015260005b81811015610f9f57858101830151858201604001528201610f83565b506000604082860101526040601f19601f8301168501019250505092915050565b80356001600160a01b0381168114610fd757600080fd5b919050565b60008060408385031215610fef57600080fd5b610ff883610fc0565b946020939093013593505050565b60008060006060848603121561101b57600080fd5b61102484610fc0565b925061103260208501610fc0565b9150604084013590509250925092565b60006020828403121561105457600080fd5b5035919050565b60006020828403121561106d57600080fd5b61107682610fc0565b9392505050565b6000806020838503121561109057600080fd5b823567ffffffffffffffff808211156110a857600080fd5b818501915085601f8301126110bc57600080fd5b8135818111156110cb57600080fd5b8660208285010111156110dd57600080fd5b60209290920196919550909350505050565b6000806040838503121561110257600080fd5b61110b83610fc0565b915061111960208401610fc0565b90509250929050565b600181811c9082168061113657607f821691505b60208210810361115657634e487b7160e01b600052602260045260246000fd5b50919050565b634e487b7160e01b600052601160045260246000fd5b6000600182016111845761118461115c565b5060010190565b634e487b7160e01b600052602160045260246000fd5b808201808211156104195761041961115c56fea2646970667358221220a93d23e2b7e12d91132ee0e838b417fb53112348ba9029b61fce0aa48f75d08664736f6c63430008180033",
  "linkReferences": {},
  "deployedLinkReferences": {}
}