{
  "_format": "hh-sol-artifact-1",
  "contractName": "MockDEX",
  "sourceName": "contracts/MockInfrastructure.sol",
  "abi": [
    {
      "inputs": [
        {
          "internalType": "address",
          "name": "_fds",
          "type": "address"
        },
        {
          "internalType": "address",
          "name": "_usdt",
          "type": "address"
        }
      ],
      "stateMutability": "nonpayable",
      "type": "constructor"
    },
    {
      "inputs": [
        {
          "internalType": "uint256",
          "name": "fdsAmount",
          "type": "uint256"
        },
        {
          "internalType": "uint256",
          "name": "usdtAmount",
          "type": "uint256"
        }
      ],
      "name": "addLiquidity",
      "outputs": [],
      "stateMutability": "nonpayable",
      "type": "function"
    },
    {
      "inputs": [],
      "name": "fdsToken",
      "outputs": [
        {
          "internalType": "contract IERC20",
          "name": "",
          "type": "address"
        }
      ],
      "stateMutability": "view",
      "type": "function"
    },
    {
      "inputs": [],
      "name": "getSpotPrice",
      "outputs": [
        {
          "internalType": "uint256",
          "name": "",
          "type": "uint256"
        }
      ],
      "stateMutability": "view",
      "type": "function"
    },
    {
      "inputs": [],
      "name": "reserveFDS",
      "outputs": [
        {
          "internalType": "uint256",
          "name": "",
          "type": "uint256"
        }
      ],
      "stateMutability": "view",
      "type": "function"
    },
    {
      "inputs": [],
      "name": "reserveUSDT",
      "outputs": [
        {
          "internalType": "uint256",
          "name": "",
          "type": "uint256"
        }
      ],
      "stateMutability": "view",
      "type": "function"
    },
    {
      "inputs": [
        {
          "internalType": "uint256",
          "name": "dumpAmount",
          "type": "uint256"
        }
      ],
      "name": "simulateDump",
      "outputs": [],
      "stateMutability": "nonpayable",
      "type": "function"
    },
    {
      "inputs": [],
      "name": "usdtToken",
      "outputs": [
        {
          "internalType": "contract IERC20",
          "name": "",
          "type": "address"
        }
      ],
      "stateMutability": "view",
      "type": "function"
    }
  ],
  "bytecode": "0x608060405234801561001057600080fd5b5060405161048938038061048983398101604081905261002f9161007c565b600080546001600160a01b039384166001600160a01b031991821617909155600180549290931691161790556100af565b80516001600160a01b038116811461007757600080fd5b919050565b6000806040838503121561008f57600080fd5b61009883610060565b91506100a660208401610060565b90509250929050565b6103cb806100be6000396000f3fe608060405234801561001057600080fd5b506004361061007d5760003560e01c80639cd441da1161005b5780639cd441da146100d2578063a98ad46c146100e7578063b688beb6146100fa578063dc76fabc1461010d57600080fd5b80630557b37314610082578063801f1c7f1461009e5780639bc29062146100c9575b600080fd5b61008b60025481565b6040519081526020015b60405180910390f35b6000546100b1906001600160a01b031681565b6040516001600160a01b039091168152602001610095565b61008b60035481565b6100e56100e03660046102b6565b610115565b005b6001546100b1906001600160a01b031681565b6100e56101083660046102d8565b610241565b61008b61027d565b6000546040516323b872dd60e01b8152336004820152306024820152604481018490526001600160a01b03909116906323b872dd906064016020604051808303816000875af115801561016c573d6000803e3d6000fd5b505050506040513d601f19601f8201168201806040525081019061019091906102f1565b506001546040516323b872dd60e01b8152336004820152306024820152604481018390526001600160a01b03909116906323b872dd906064016020604051808303816000875af11580156101e8573d6000803e3d6000fd5b505050506040513d601f19601f8201168201806040525081019061020c91906102f1565b50816002600082825461021f9190610330565b9250508190555080600360008282546102389190610330565b90915550505050565b80600260008282546102539190610330565b909155506102649050600282610349565b60036000828254610275919061036b565b909155505050565b600060025460000361028f5750600090565b6002546003546102a790670de0b6b3a764000061037e565b6102b19190610349565b905090565b600080604083850312156102c957600080fd5b50508035926020909101359150565b6000602082840312156102ea57600080fd5b5035919050565b60006020828403121561030357600080fd5b8151801515811461031357600080fd5b9392505050565b634e487b7160e01b600052601160045260246000fd5b808201808211156103435761034361031a565b92915050565b60008261036657634e487b7160e01b600052601260045260246000fd5b500490565b818103818111156103435761034361031a565b80820281158282048414176103435761034361031a56fea26469706673582212207405bdd22d055a060be7599b4767c1308af1901ae047ee48e4688063200e9fa464736f6c63430008180033",
  "linkReferences": {},
  "deployedLinkReferences": {}
}