{
  "_format": "hh-sol-artifact-1",
  "contractName": "MockOracle",
  "sourceName": "contracts/MockInfrastructure.sol",
  "abi": [
    {
      "inputs": [],
      "name": "getLatestPrice",
      "outputs": [
        {
          "internalType": "uint256",
          "name": "",
          "type": "uint256"
        }
      ],
      "stateMutability": "view",
      "type": "function"
    },
    {
      "inputs": [],
      "name": "price",
      "outputs": [
        {
          "internalType": "uint256",
          "name": "",
          "type": "uint256"
        }
      ],
      "stateMutability": "view",
      "type": "function"
    },
    {
      "inputs": [
        {
          "internalType": "uint256",
          "name": "_price",
          "type": "uint256"
        }
      ],
      "name": "setPrice",
      "outputs": [],
      "stateMutability": "nonpayable",
      "type": "function"
    }
  ],
  "bytecode": "0x6080604052670de0b6b3a764000060005534801561001c57600080fd5b5060bf8061002b6000396000f3fe6080604052348015600f57600080fd5b5060043610603c5760003560e01c80638e15f47314604157806391b7f5ed146057578063a035b1fe146069575b600080fd5b6000545b60405190815260200160405180910390f35b606760623660046071565b600055565b005b604560005481565b600060208284031215608257600080fd5b503591905056fea2646970667358221220627122b0837a8d856d30f903d51603cbc3eebb16a58bc63442b9f6b6751ba96f64736f6c63430008180033",
  "linkReferences": {},
  "deployedLinkReferences": {}
}