{
  "_format": "hh-sol-artifact-1",
  "contractName": "MockVault",
  "sourceName": "contracts/MockInfrastructure.sol",
  "abi": [
    {
      "inputs": [
        {
          "internalType": "address",
          "name": "_token",
          "type": "address"
        }
      ],
      "stateMutability": "nonpayable",
      "type": "constructor"
    },
    {
      "inputs": [
        {
          "internalType": "uint256",
          "name": "amount",
          "type": "uint256"
        }
      ],
      "name": "exploitDrain",
      "outputs": [],
      "stateMutability": "nonpayable",
      "type": "function"
    },
    {
      "inputs": [],
      "name": "reserveToken",
      "outputs": [
        {
          "internalType": "contract IERC20",
          "name": "",
          "type": "address"
        }
      ],
      "stateMutability": "view",
      "type": "function"
    }
  ],
  "bytecode": "0x608060405234801561001057600080fd5b5060405161020338038061020383398101604081905261002f91610054565b600080546001600160a01b0319166001600160a01b0392909216919091179055610084565b60006020828403121561006657600080fd5b81516001600160a01b038116811461007d57600080fd5b9392505050565b610170806100936000396000f3fe608060405234801561001057600080fd5b50600436106100365760003560e01c8063390961d21461003b578063f4325d6714610050575b600080fd5b61004e6100493660046100f8565b61007f565b005b600054610063906001600160a01b031681565b6040516001600160a01b03909116815260200160405180910390f35b60005460405163a9059cbb60e01b8152336004820152602481018390526001600160a01b039091169063a9059cbb906044016020604051808303816000875af11580156100d0573d6000803e3d6000fd5b505050506040513d601f19601f820116820180604052508101906100f49190610111565b5050565b60006020828403121561010a57600080fd5b5035919050565b60006020828403121561012357600080fd5b8151801515811461013357600080fd5b939250505056fea2646970667358221220046d2a74eab1b41d11525f204b630c0c7029bd0de190637b54fc8cc5f2054aa564736f6c63430008180033",
  "linkReferences": {},
  "deployedLinkReferences": {}
}